:100000000C94AB000C94C8000C94C8000C94C8006D
:100010000C94C8000C94C8000C94C8000C94C80040
:100020000C94C8000C94C8000C94C8000C94C80030
:100030000C94C8000C94C8000C94C8000C94C80020
:100040000C94C8000C94C8000C94C8000C94C80010
:100050000C94C8006E616E00696E660000407A10F4
:10006000F35A00A0724E18090010A5D4E80000E869
:100070007648170000E40B54020000CA9A3B0000C7
:1000800000E1F505000080969800000040420F0056
:100090000000A08601000000102700000000E80317
:1000A000000000006400000000000A0000000000E2
:1000B0000100000000002C76D888DC674F0823DFA1
:1000C000C1DFAE59E1B1B796E5E3E453C63AE65174
:1000D000997696E8E6C28426EB898C9B62ED407C9B
:1000E0006FFCEFBC9C9F40F2BAA56FA5F490055A37
:1000F0002AF75C936B6CF9676DC11BFCE0E40D475C
:10010000FEF520E6B500D0ED902E0300943577057E
:100110000080841E080000204E0A000000C80C3336
:100120003333330F986E12831141EF8D2114893BC5
:10013000E65516CFFEE6DB18D1844B381BF77C1D45
:10014000901DA4BBE424203284725E228100C9F198
:1001500024ECA1E53D2711241FBECFE5D8E0DEBF8A
:10016000CDBF11E0A0E6B0E0E2E9F3E102C0059006
:100170000D92A232B107D9F721E0A2E2B1E001C0AD
:100180001D92A23FB207E1F70E94D1030C94C70968
:100190000C940000672B09F09FC0009711F4D898C9
:1001A00008958130910511F4D99808958230910510
:1001B00011F4DA9808958330910511F4DB980895CD
:1001C0008430910511F4DC9808958530910511F47F
:1001D000DD9808958630910511F4DE9808958730F2
:1001E000910511F4DF9808958A30910511F4C098B3
:1001F00008958B30910511F4C19808958C309105C4
:1002000011F4C29808958D30910511F4C3980895A2
:100210008E30910511F4C49808958F30910511F432
:10022000C59808958031910511F4C69808958131DB
:10023000910511F4C79808958431910511F4A89897
:1002400008958531910511F4A99808958631910595
:1002500011F4AA9808958731910511F4AB98089587
:100260008831910511F4AC9808958931910511F404
:10027000AD9808958A31910511F4AE9808958B31A7
:10028000910511F4AF9808958E31910511F490986D
:1002900008958F31910511F4919808958032910558
:1002A00011F4929808958132910511F4939808956C
:1002B0008232910511F4949808958332910511F4D6
:1002C000959808958432910511F49698089585972C
:1002D00009F09FC097980895009711F4D89A08954F
:1002E0008130910511F4D99A08958230910511F465
:1002F000DA9A08958330910511F4DB9A08958430D9
:10030000910511F4DC9A08958530910511F4DD9A78
:1003100008958630910511F4DE9A0895873091058D
:1003200011F4DF9A08958A30910511F4C09A089566
:100330008B30910511F4C19A08958C30910511F418
:10034000C29A08958D30910511F4C39A08958E30A4
:10035000910511F4C49A08958F30910511F4C59A4E
:1003600008958031910511F4C69A0895813191055F
:1003700011F4C79A08958431910511F4A89A08954B
:100380008531910511F4A99A08958631910511F4EA
:10039000AA9A08958731910511F4AB9A089588318E
:1003A000910511F4AC9A08958931910511F4AD9A33
:1003B00008958A31910511F4AE9A08958B31910513
:1003C00011F4AF9A08958E31910511F4909A089521
:1003D0008F31910511F4919A08958032910511F4AD
:1003E000929A08958132910511F4939A0895823278
:1003F000910511F4949A08958332910511F4959A18
:1004000008958432910511F4969A0895859709F418
:10041000979A0895CF93C82F80FF07C061E070E0DE
:1004200082E290E00E94CA0006C060E070E082E2D2
:1004300090E00E94CA00C1FF07C061E070E083E263
:1004400090E00E94CA0006C060E070E083E290E0A5
:100450000E94CA00C2FF07C061E070E084E290E041
:100460000E94CA0006C060E070E084E290E00E9452
:10047000CA00C3FF07C061E070E085E290E00E941F
:10048000CA0006C060E070E085E290E00E94CA0009
:10049000CF910895CF93C82F61E070E08EE190E096
:1004A0000E94CA008C2F82958F700E940A0261E020
:1004B00070E08FE190E00E94CA0089EF90E0019720
:1004C000F1F700C0000060E070E08FE190E00E9472
:1004D000CA0089EF90E00197F1F700C000008C2F6F
:1004E0008F700E940A0261E070E08FE190E00E944C
:1004F000CA0089EF90E00197F1F700C0000060E0CA
:1005000070E08FE190E00E94CA0089EF90E00197CF
:10051000F1F700C00000CF910895CF93DF93EC0175
:100520008881882331F021960E944A0289918111A5
:10053000FBCFDF91CF9108959BB3907E892B8BBB2E
:100540000895CF92DF92EF92FF920F931F93CF9374
:100550000F2EF4E6CF2ED12CF02D18C08C2F0E9438
:100560009C02F70181917F0185BBF80181918F0188
:1005700088BB89EF90E00197F1F700C00000CF5FE2
:10058000C03261F791E0C91AD10851F00F2EF0E0A6
:10059000EF2EF1E0FF2EF02D00EE10E0C0E0DECFF8
:1005A000CF911F910F91FF90EF90DF90CF90089522
:1005B0000F2EF0EEEF2EF0E0FF2EF02D00EC10E00D
:1005C000C0E08C2F0E949C02F70181917F0185BBC6
:1005D000F80181918F0188BB89EF90E00197F1F7D5
:1005E00000C00000CF5FC03261F7E2CFCF93DF934E
:1005F0001F92CDB7DEB7E0E8F0E082E090E0DF01E7
:1006000002C0019631968131910539F450962C91B2
:10061000509717962C931797F4CF2181208380321F
:1006200091057CF3E0E8F0E08081878FBE016F5F89
:100630007F4F8091AE019091AF010E94ED08CE01F5
:1006400001960E948D020F90DF91CF910895EAE20A
:10065000F1E0A8E6B0E022E331E08081982F990F25
:1006600091939C91990F881F8827881F892B8D93C0
:10067000E217F30791F78091AA019091AB010196DF
:100680009093AB018093AA010895609164017091E9
:1006900065016A30710594F08091AA019091AB01D7
:1006A0000A971CF40E942703089510926501109286
:1006B00064011092AB011092AA010895E8E6F0E0FF
:1006C000AAE2B1E040E750E09081892F86958193BE
:1006D0008C91282F269530E8939FC0011124822BFE
:1006E0008D93E417F50781F76F5F7F4F7093650176
:1006F0006093640108958F929F92AF92BF92CF92C0
:10070000DF92EF92FF920F931F93CF930F2EF0E69D
:10071000EF2EF0E0FF2EF02D0F2EF0EAAF2EF0E0DE
:10072000BF2EF02D0F2EF2E2CF2EF1E0DF2EF02DB6
:1007300000E810E0C0E088248394912C8C2F0E9464
:100740009C02D7019D917D01F50181915F01F80126
:10075000892BD8019D918D01892B88BBD6018D9164
:100760006D0185BBD70117969C918081892321F06B
:100770009092AD018092AC01E9EFF0E03197F1F792
:1007800000C00000CF5FC032C9F6CF911F910F911A
:10079000FF90EF90DF90CF90BF90AF909F908F90A1
:1007A000089580E884BF84BF8FE18ABB8FEF84BB4C
:1007B00087BB81BBE0E8F0E0A8E8B1E020EA30E0E8
:1007C00081918D93E217F307D9F7E0E6F0E0C2E4F8
:1007D000D1E0A0EBB1E020E830E0819189938D93E6
:1007E000E217F307D1F70E94A102C1E0D0E08091A7
:1007F000620190916301019690936301809362017D
:1008000084369105DCF18091A8019091A9010196AF
:100810009093A9018093A801109263011092620144
:100820002DC00E94D8020E94F6028091F0019091A2
:10083000F101892B39F4CD9BDACFD093F101C0932C
:10084000F001D5CF0E9445038091F0019091F10114
:100850000196853191052CF49093F1018093F0017C
:10086000C6CF1092F1011092F00110926501109222
:1008700064011092AB011092AA01B9CF0E947B03D0
:100880000E947B030E947B038091AC019091AD019B
:10089000019749F6C6CFA0E1B0E0E1E5F4E00C94A1
:1008A000C8077C011B016A01FC0117821682838143
:1008B00081FF44C39E012F5F3F4F3901F7019381B0
:1008C000F10193FD859193FF81911F01882309F424
:1008D00031C3853239F493FD859193FF81911F01D6
:1008E000853239F4B70190E00E941D095601650177
:1008F000E5CF10E0512C912CFFE1F915D8F08B32A7
:1009000079F038F4803279F08332A1F4F92DF06176
:100910002EC08D3261F0803369F4292D21602DC005
:10092000392D3260932E892D8460982E2AC0E92DAE
:10093000E86015C097FC2DC020ED280F2A3088F400
:1009400096FE06C03AE0139F200D1124122F19C005
:100950008AE0589E200D1124522EE92DE0629E2E31
:1009600010C08E3231F496FCE5C2F92DF0649F2E52
:1009700008C08C3621F4292D2068922E02C08836BA
:1009800041F4F10193FD859193FF81911F01811144
:10099000B3CF9BEB980F933020F4992D9061805E3C
:1009A00007C09BE9980F933008F066C1992D9F7E90
:1009B00096FF16E09F73992E853619F49064992E50
:1009C00008C0863621F4392F3068932E02C01111E9
:1009D000115097FE07C01C3350F444244394410E39
:1009E00027E00BC0183038F027E017E005C027E0FB
:1009F0009CE3492E02C0212F412C560184E0A80E11
:100A0000B11CF6016081718182819381042DA30163
:100A10000E94FF076C01F981FC87F0FF02C0F3FF21
:100A200006C091FC06C092FE06C000E205C00DE2C1
:100A300003C00BE201C000E08C858C7019F001113D
:100A40005AC29BC297FE10C04C0CFC85F4FF04C038
:100A50008A81813309F44A94141474F528E024152A
:100A600078F588E0482E2CC096FC2AC0812F90E0B3
:100A70008C159D059CF03CEFC3163FEFD30674F038
:100A8000892D8068982E0AC0E2E0F0E0EC0FFD1F8F
:100A9000E10FF11D8081803319F411501111F4CF51
:100AA00097FE0EC044244394410E812F90E0C81657
:100AB000D9062CF41C1904C04424439401C010E04E
:100AC00097FE06C01C141D0434F4C601019605C02F
:100AD00085E090E002C081E090E0011101961123D1
:100AE00031F0212F30E02F5F3F4F820F931F252DD4
:100AF00030E08217930714F4581A01C0512C892D45
:100B0000897049F4552039F0B70180E290E00E94E5
:100B10001D095A94F7CF002329F0B701802F90E0E8
:100B20000E941D0993FC09C0552039F0B70180E3EC
:100B300090E00E941D095A94F7CF97FE4CC04601E1
:100B4000D7FE02C0812C912CC60188199909F301A6
:100B5000E80FF91FFE87ED87960124193109388BBC
:100B60002F87012F10E01195019511093FEF831692
:100B7000930629F4B7018EE290E00E941D09C81483
:100B8000D9044CF08F8598898815990524F4ED8552
:100B9000FE85818101C080E3F1E08F1A91082D85E7
:100BA0003E852F5F3F4F3E872D87801691062CF0A4
:100BB000B70190E00E941D09D9CFC814D90441F4AF
:100BC0009A81963320F4953319F43C8534FF81E300
:100BD000B70190E04EC08A81813319F09C859F7ED9
:100BE0009C87B70190E00E941D09111105C094FC7B
:100BF00018C085E690E017C0B7018EE290E00E9431
:100C00001D091E5F82E001E0080FF301E80FF11DEE
:100C10008081B70190E00E941D09802F0113F3CF5E
:100C2000E6CF85E490E0B7010E941D09D7FC06C01D
:100C3000C114D10441F4EC85E4FF05C0D194C19402
:100C4000D1088DE201C08BE2B70190E00E941D093E
:100C500080E32AE0C216D1042CF08F5FFAE0CF1AAD
:100C6000D108F7CFB70190E00E941D09B701C60176
:100C7000C0960E941D0954C1833631F0833779F044
:100C8000833509F056C020C0560132E0A30EB11CD6
:100C9000F6018081898301E010E0630112C05601F2
:100CA000F2E0AF0EB11CF601C080D18096FE03C009
:100CB000612F70E002C06FEF7FEFC6010E94E20873
:100CC0008C01F92DFF7714C0560122E0A20EB11C51
:100CD000F601C080D18096FE03C0612F70E002C093
:100CE0006FEF7FEFC6010E94D7088C01F92DF068E5
:100CF0009F2EF3FD1AC0852D90E008171907A8F460
:100D0000B70180E290E00E941D095A94F4CFF601E9
:100D100097FC859197FE81916F01B70190E00E9449
:100D20001D0951105A94015011090115110579F747
:100D3000F7C0843611F0893661F5560197FE09C077
:100D400024E0A20EB11CF601608171818281938141
:100D50000AC0F2E0AF0EB11CF60160817181072E6E
:100D6000000C880B990BF92DFF769F2E97FF09C079
:100D700090958095709561957F4F8F4F9F4FF0684C
:100D80009F2E2AE030E0A3010E945909C82EC61800
:100D90003FC0092D853721F40F7E2AE030E01DC0C9
:100DA000097F8F3691F018F4883559F0C3C0803729
:100DB00019F0883711F0BEC0006104FF09C004605B
:100DC00007C094FE08C0066006C028E030E005C0F9
:100DD00020E130E002C020E132E0560107FF09C007
:100DE00084E0A80EB11CF60160817181828193813B
:100DF00008C0F2E0AF0EB11CF6016081718180E0A5
:100E000090E0A3010E945909C82EC6180F77902EB2
:100E100096FE0BC0092D0E7FC11650F494FE0AC039
:100E200092FC08C0092D0E7E05C0DC2C092D03C0E4
:100E3000DC2C01C0D12E04FF0DC0FE01EC0DF11D14
:100E40008081803311F4097E09C002FF06C0D3946B
:100E5000D39404C0802F867809F0D39403FD11C089
:100E600000FF06C01C2DD51480F4150D1D190DC0F2
:100E7000D51458F4B70180E290E00E941D09D39484
:100E8000F7CFD51410F45D1801C0512C04FF10C029
:100E9000B70180E390E00E941D0902FF17C001FD29
:100EA00003C088E790E002C088E590E0B7010CC07D
:100EB000802F867859F001FF02C08BE201C080E2EA
:100EC00007FD8DE2B70190E00E941D09C11638F4BC
:100ED000B70180E390E00E941D091150F7CFCA943A
:100EE000F301EC0DF11D8081B70190E00E941D0916
:100EF000C110F5CF15C0F4E0F51560F584E0581A7F
:100F000093FE1FC0011127C02C8523FF2AC004E5D2
:100F100010E0392D3071932EF8018491811124C095
:100F2000552009F4E4CCB70180E290E00E941D094D
:100F30005A94F6CFF7018681978126C08FEF9FEFF5
:100F400023C0B70180E290E00E941D095A9451101D
:100F5000F8CFD8CF512CB701802F90E00E941D0907
:100F6000D3CF08E510E0D5CF91108052B70190E0C3
:100F70000E941D090F5F1F4FCFCF23E0251510F4EE
:100F800083E0BDCF512CC0CF6096E2E10C94E40722
:100F90002F923F924F925F926F927F928F929F9289
:100FA000AF92BF92CF92DF92EF92FF920F931F9377
:100FB000CF93DF93CDB7DEB7CA1BDB0B0FB6F89428
:100FC000DEBF0FBECDBF09942A88398848885F8468
:100FD0006E847D848C849B84AA84B984C884DF80D9
:100FE000EE80FD800C811B81AA81B981CE0FD11DBD
:100FF0000FB6F894DEBF0FBECDBFED0108952830C7
:1010000008F027E03327DA01990F311D87FD916041
:1010100000966105710539F432602E5F3D9330E32F
:101020002A95E1F708959F3F30F0803871056105FA
:1010300009F03C5F3C5F3D93913008F08068911D62
:10104000DF93CF931F930F93FF92EF92192F987F07
:101050009695E92F96959695E90FFF27EA54FF4F4D
:1010600099273327EE24FF24A701E7010590089470
:10107000079428F4360FE71EF81E491F511D660F0E
:10108000771F881F991F0694A1F70590079428F4ED
:10109000E70EF81E491F561FC11D770F881F991FA5
:1010A000661F0694A1F70590079428F4F80E491FCF
:1010B000561FC71FD11D880F991F661F771F0694E3
:1010C000A1F70590079420F4490F561FC71FD81F9A
:1010D000990F661F771F881F0694A9F784911095B2
:1010E000177041F0D695C79557954795F794E794B3
:1010F0001A95C1F7ECE5F0E06894159015913591DB
:101100006591959105907FE27395E118F10A430B83
:10111000560BC90BD009C0F7E10CF11E431F561F37
:10112000C91FD01D7EF4703311F48A95E6CFE89480
:10113000015030F0080F0AF40027021708F4202F9E
:101140002395022F7A3328F079E37D932A95E9F7E6
:1011500010C07D932A9589F60694979567953795E3
:1011600017951794E118F10A430B560BC90BD009D8
:1011700098F023957E9173957A3308F070E37C9311
:101180002013B8F77E9170617D9330F0839571E301
:101190007D9370E32A95E1F71124EF90FF900F9172
:1011A0001F91CF91DF91992787FD90950895FC01BC
:1011B0000590615070400110D8F7809590958E0F82
:1011C0009F1F0895FC016150704001900110D8F7F5
:1011D000809590958E0F9F1F08954532510520F4FC
:1011E000423010F00C94F808FB011082CB010895F6
:1011F000BB274A3031F4992322F4BDE290958195C2
:101200009F4F0C940409BB27FB015527AA27880F81
:10121000991FAA1FA41710F0A41B83955051B9F76A
:10122000A05DAA3308F0A95DA193009779F7B111E9
:10123000B1931192CB010C94B7090F931F93CF93E5
:10124000DF93FB01238121FD03C08FEF9FEF2CC0B3
:1012500022FF16C0468157812481358142175307EA
:1012600044F4A081B1819D012F5F3F4F31832083E2
:101270008C93268137812F5F3F4F3783268314C09D
:101280008B01EC01FB010084F185E02D0995892B90
:10129000E1F6D80116968D919C91179701961796B5
:1012A0009C938E931697CE01DF91CF911F910F9152
:1012B0000895FA01AA27283051F1203181F1E894EC
:1012C0006F936E7F6E5F7F4F8F4F9F4FAF4FB1E039
:1012D0003ED0B4E03CD0670F781F891F9A1FA11D34
:1012E000680F791F8A1F911DA11D6A0F711D811D35
:1012F000911DA11D20D009F468943F912AE0269FFA
:1013000011243019305D3193DEF6CF010895462F58
:101310004770405D4193B3E00FD0C9F7F6CF462F39
:101320004F70405D4A3318F0495D31FD40524193A2
:1013300002D0A9F7EACFB4E0A6959795879577955F
:101340006795BA95C9F700976105710508959B01E6
:10135000AC010A2E06945795479537952795BA956F
:10136000C9F7620F731F841F951FA01D0895DC012C
:10137000FC01672F71917723E1F7329704C07C91CC
:101380006D9370836291AE17BF07C8F30895F89408
:02139000FFCF8D
:1013920000000000000000008070FC7CFC28280097
:1013A200000000000000000000000000000000003B
:1013B200000000000000000000000000000000002B
:1013C20000000000000000000000000000F0F8F043
:1013D200808080808080808000000000000000000B
:1013E20080808080808080808080808080808080FB
:1013F20000000000000000000000003C4242423CAD
:10140200003E403E007E5242007C22326C00BE0012
:1014120000000000000000000000003C424A3A00C8
:10142200007C227C007E0408047E007E5242000082
:1014320000000000000000000000007E42241800AE
:101442007E007E02040810207E003C4242423C00A4
:02145200000098
:00000001FF
